:020000040800F2
:10000000680A002059480008010C0008030C000889
:1000100000000000000000000000000000000000E0
:10002000000000000000000000000000050C0008B7
:100030000000000000000000070C0008090C000888
:100040001714000800000000150C0008A71C000889
:100050003F220008572200089F4300081F0C000899
:1000600000000000E7460008234700083748000862
:10007000434800087D4800087F4800080000000051
:1000800081480008834800080000000085480008F7
:1000900087480008894800088B4800088D480008F8
:1000A0008F4800089148000893480008370C000862
:1000B0009548000810B5040015D06920205C002880
:1000C00004D168216054200000F0CEFC2420692176
:1000D000605420680168012291430160200000F013
:1000E00062FA012801D1012010BD606A002802D007
:1000F000200000F0E3FA206841688B4A0A40426021
:1001000020688168082291438160FFE720680168C8
:1001100001220A430260200000F036FB10BD38B512
:10012000040001D1012032BD2420692160542068DF
:100130000168012291430160002520680560206864
:10014000456020688560200000F0CBFCE56600205B
:10015000692160546A2160546834257032BDFEB54F
:1001600005000C006920285C202860D1002C0BD0F1
:10017000002A09D0A86880214901884206D128694F
:10018000002803D1E00701D50120FEBD6820285CCE
:1001900001284CD00120682168540026EE662120F9
:1001A0006921685400F0F0FC0700684680885021FF
:1001B0006852684680885221685205E02088C00550
:1001C000C00D29680885A41C5220285A00281BD07D
:1001D0005220285A401E52216852029800903B003B
:1001E00000228021280000F0D6FA002816D1A86845
:1001F00080214901884202D128690028DED0207878
:1002000029680885641CDFE7029800903B00002203
:100210004021280000F0BFFA002801D00320FEBDD5
:1002200020206921685468352E700020FEBD022010
:10023000FEBDFCB583B004000D006A20205C2028C0
:100240006DD1002D0BD0002A09D080277F01A06836
:10025000B84206D12069002803D1E80701D5012062
:100260005EE06820205C012859D00120682160549C
:100270000026E66622206A21605400F085FC029088
:100280006846808958216052684680895A216052A8
:10029000A168FF20B94204D12169002907D146484D
:1002A00005E0002905D12169002900D07F205C21CB
:1002B000605268465C21615A818006E02068808C2B
:1002C0006946898801402980AD1C5A20205A00289F
:1002D0001ED05A20205A401E5A2160520498009085
:1002E000029B00222021200000F055FA002801D0B6
:1002F000032015E0A068B84202D120690028DDD0B3
:100300002068808C69468988014029706D1CDCE773
:1003100020206A21605468342670002000E002200A
:1003200005B0F0BD00000000FFF7FFFFB0B56A2385
:10033000C35C202B3DD100290BD0002A09D0846852
:1003400080256D01AC4206D10369002B03D1CB0798
:1003500001D50120B0BD6823C35C012B29D0012346
:100360006827C3554165582142525A214252FF2104
:10037000AC4204D10269002A07D10F4905E0002CE4
:1003800005D10269002A00D07F215C228152002120
:10039000C16622226A240255C15501688A68134346
:1003A0008B6000680168902252000A4302600020BE
:1003B000B0BD0220B0BD0000FF010000F8B5040090
:1003C0000127206801682C4A0A4002602068816881
:1003D000B9438160216E00258020002907D0226862
:1003E0009268024002D0694A4A6300E04D63616E40
:1003F0004026002907D022689268324002D0644A21
:100400004A6300E04D6321688A6810400ED0886816
:10041000802290438860206E002807D000F0CCFB3B
:10042000002802D0206E456300E000272068816824
:100430000E400DD08168402291438160606E00289B
:1004400006D000F0B9FB002814D0606E456301E0CF
:10045000002F0FD0522165525A216552E5660F20B8
:100460002168086220206922A0546A21605420007B
:1004700000F091F80020F2BD1FFEFFFF70B50400F0
:100480002368D869196805072D0F07D1820605D59D
:100490008A0603D5200000F04CFA70BD9A68002D42
:1004A00063D001252A4203D1902676000E405CD00D
:1004B000C60705D5CE0503D51D62E36E1D43E5666F
:1004C00004230225860706D5D60704D5266835629B
:1004D000E66E1E43E666460706D5D60704D52668AF
:1004E0003362E36E1D43E5660825030708D58B06D6
:1004F00001D4D20704D522681562E26E2A43E2666F
:10050000E26E002A40D0800604D5880602D520007D
:1005100000F00FFA4026E06E054003D120688068A5
:1005200030401CD0200000F068F9206881680E403F
:1005300011D08168402291438160606E00280AD00A
:100540005D494163606E00F037FB00281CD0606E8F
:10055000416B884770BD200000F098FB70BD200003
:1005600000F094FB0020E06670BD020605D50A0687
:1005700003D5200000F09CF970BD400604D5480664
:1005800002D5200000F0C8F970BD00006D08000819
:100590007B08000870477047002168300170002018
:1005A0007047C06E7047F8B5040010220020002587
:1005B00026683168984F0F40A168394327690F4377
:1005C00061693943E7690F43376077689349394078
:1005D000E7680F437760B76891493940A7690F43CF
:1005E000216A3943B1608F498E420FD18E49096823
:1005F0008907890F0DD0022906D003D3032909D119
:10060000022207E0042205E0082203E087498E4227
:1006100000D1002280231B02E7699F4225D1002AD6
:1006200006D0022A07D0042A09D0082A0DD013E0E8
:1006300000F0F8FD05E0616848087D4A08E000F038
:10064000C3FD616840004A0802E0616848085A003A
:10065000801800F02EFE00E00125764901400004DC
:10066000400C4007400F084318E0002A06D0022A39
:1006700007D0042A0AD0082A13D01AE000F0D2FDCD
:1006800006E0616848086C4A80180DE000F09CFDA7
:1006900061684A08801800F00CFE80B22168C860CA
:1006A00008E061684808C01800F003FE80B2F060FE
:1006B00000E001252800F2BD590800082421415C12
:1006C000C90706D501684A685C4B1340826A1A4321
:1006D0004A602421415C890706D501684A68584B65
:1006E0001340C26A1A434A602421415C490706D577
:1006F00001684A68534B1340026B1A434A60242135
:10070000415C090706D501684A684F4B1340426BAC
:100710001A434A602421415CC90606D501688A68EB
:100720004A4B1340826B1A438A602421415C89063C
:1007300006D501688A68134B1340C26B1A438A605E
:100740002421415C490611D501684A68404B134099
:10075000026C1A434A60026C80235B039A4205D103
:100760004A683C4B1340426C1A434A602421415C66
:10077000090606D501684A688C4B1340806C184303
:1007800048607047FFDFFFFF683000214160202292
:100790004270827002E7FEB504000F000025089E3B
:1007A0002068C0693840B84201D1012000E0002033
:1007B0006946097988421ED10020C0438642EFD0A5
:1007C000002E05D000F0E0F90299401A8642E7D2E7
:1007D00020680168764A0A40026020688168012228
:1007E000914381602020692160546A2160546834FB
:1007F00025700320FEBD0020FEBD01680A686D4B18
:1008000013400B6001688A6801239A438A602021A3
:100810006A30017070470000F369FFFFFFCFFFFFF0
:10082000FFF4FFFF00380140301002400044004058
:100830000024F400F0FF000000127A00FFFFFDFF2B
:10084000FFFFFEFFFFFFFBFFFF7FFFFFFFEFFFFF4D
:10085000FFFFEFFFFFFF9FFF80B5406A01005231AD
:1008600000220A810A8000F011FA01BD80B5406AB9
:100870000021026E5163426E05E080B5406A00219E
:10088000426E5163026E002A02D0526B002A0ED1D2
:100890005223C1525A23C152C1660F21026811620C
:1008A00020216923C1546A228154FFF774FE01BDDF
:1008B0006921415C21292DD15221415A00290AD1B7
:1008C00001680A6880239A430A6000680168402230
:1008D0000A4302601CE081688022520191420CD1DF
:1008E0000169002909D1C16C0988C905C90D0268CF
:1008F0001185C16C891CC16405E0C16C4A1CC264CD
:100900000978026811855221415A491E52300180EE
:10091000002070470220704780B501680A684023B4
:100920009A430A60202169228154FFF733FE002098
:1009300002BD10B55C21415A02686A23C35C222BB8
:100940002CD1928C836880246401A34209D103696D
:10095000002B06D11140426D1180416D891C41650B
:1009600004E0436D5C1C4465114019705A21415AE2
:10097000491E5A22815209040ED101680A680D4BA2
:1009800013400B6001688A6801239A438A60202122
:100990006A22815400F068F9002010BD9069082196
:1009A00001439161022010BD00000000FFFFF7FF2E
:1009B0005FFEFFFFDFFEFFFF80B5012058490A6898
:1009C00002430A600A6810400090009880204005A9
:1009D0004A6802434A604968084000900098002233
:1009E00000210420C04300F0D4FC0022002101209B
:1009F000C04300F0CEFC002200210020C04300F0E4
:100A0000C8FC01BD00684749884200D0704700B566
:100A100087B0480D42490A6802430A6009680840E5
:100A20000090009802200190032002900020039083
:100A300001A99020C00500F0EFFC07B000BD0068E0
:100A40003949884200D0704780B538480168802213
:100A500012020A43026000220021022000F099FCE9
:100A6000022000F09AFC01BDF0B587B00668902026
:100A7000C0050121032200230224294D2C4FBE4230
:100A800019D18E032F6837432F602D682E400096B2
:100A9000009D55020195029403930492059101A9CA
:100AA00000F0BAFC002201211B2000F072FC1B2088
:100AB00000F073FC13E01F4FBE4210D14E046F686C
:100AC00037436F606D682E400096009D0C250195A0
:100AD000029403930492059101A900F09DFC07B0D4
:100AE000F0BD80B502689020C0050D49104B9A42B8
:100AF0000BD10A68104B13400B60C021C90000F0F5
:100B000045FD1B2000F050FC01BD0A4B9A4206D166
:100B10004A680A4B13404B600C2100F037FD01BDC1
:100B2000181002400024014000280040201002401C
:100B30000038014000440040FFBFFFFFFFFFFDFF02
:100B400080B51B48016810220A430260002000F0B3
:100B500004F8FFF731FF002002BD10B5040000F0DB
:100B60005CFBFA21890000F0A4FB00F024FC0022C9
:100B700021000020C04300F00CFC002010BD0D48F7
:100B80000168491C016070470A480068704731B528
:100B9000FFF7FAFF0400009D0020C043854200D00B
:100BA0006D1CFFF7F1FF001BA842FAD331BD000016
:100BB000002002405C02002070B5002200240121C8
:100BC0002123C35C022B03D004228263012415E09D
:100BD00003681D680E26B5431D6003681D688D43BC
:100BE0001D60036C01259D40C36B5D602123C154D2
:100BF00020214254416B0A0000D08847200070BD7C
:100C00007047FEE77047704780B5FFF7B8FF00F008
:100C1000FDFB01BD80B5194800F0D5FF01BD80B5D1
:100C20008020C00100F02EFD102000F02BFD2020C0
:100C300000F028FD01BD80B51148FFF71FFC01BD84
:100C400010480069010000D1704780B5804701BDA0
:100C50008021C901884200D1704780B50949C9681F
:100C60000A0000D0884701BD00680749884200D0CB
:100C7000704780B501F01AFA01BD000000020020A3
:100C80006C000020200200200038014038B504002C
:100C9000FFF787FC02210422104201D02368196269
:100CA0000123184201D025682B62014001D0216840
:100CB0000A620821084001D02068016231BD30B4C9
:100CC000012100220368001D002B0BD00468001DC9
:100CD0000C4202D04D466D1E64192260241D1B1F5C
:100CE000F0D0FAE730BC70470C48016881220A4313
:100CF000026041680A4A0A4042600168094A0A40A3
:100D000002600168084A0A40026000214160C16235
:100D10000163816005480649086070470010024081
:100D20000CF8FFF0FFFFF6FEFFFFFBFF00127A005A
:100D300000000020F0B583B00400AD4D2078C0075E
:100D40004CD58027BF0268680C210140042907D0D8
:100D500068680C21014008290AD16868C00307D5DA
:100D6000286807403AD06068002837D10120FEBDCE
:100D70006168012902D1286879080BE09D489E4AE4
:100D800000290AD0052908D1286879000143296083
:100D90002868D1430143296005E029680A402A6098
:100DA000296808402860606800280BD0FFF7ECFE37
:100DB00006002868384011D1FFF7E6FE801B652841
:100DC000F7D362E1FFF7E0FE06002868384005D05F
:100DD000FFF7DAFE801B6528F7D356E1022720686B
:100DE000384018D068680C21014007D068680C2191
:100DF0000140082925D16868C00322D428683840FA
:100E000002D0E0680128B1D12868F821884321691F
:100E1000C900014329602078000743D5E069002814
:100E2000686A30D0012101436962FFF7ADFE060018
:100E3000686A384036D1FFF7A7FE801B0328F7D336
:100E400023E1E068002828680ED0012101432960D1
:100E5000FFF79AFE060028683840D5D1FFF794FEC8
:100E6000801B0328F7D310E1012188432860FFF796
:100E70008BFE060028683840CDD0FFF785FE801B2A
:100E80000328F7D301E1012188436862FFF77CFE64
:100E90000600686A384005D0FFF776FE801B0328FD
:100EA000F7D3F2E02078400765D500206946087046
:100EB000F806E969014009D1E9690143E961E96995
:100EC0000840019001980120694608707148006847
:100ED000C00512D46F480068A90D01436D48016038
:100EE000FFF752FE06006B480068C00505D4FFF707
:100EF0004BFE801B6528F6D3C7E0A068012809D007
:100F0000002801D1286A0AE00528286A07D10421AF
:100F100001432962286A01210143296206E0012177
:100F200088432862286A042188432862A068002830
:100F30000CD0FFF729FE0600286A384013D1FFF7CE
:100F400023FE801B9E498842F6D39EE0FFF71CFEDD
:100F50000600286A384006D0FFF716FE801B984925
:100F60008842F6D391E068460078002803D0E8690B
:100F700094490140E9612078C0061DD560690128C7
:100F80003CD1686B042101436963686B0121014313
:100F90006963FFF7F9FD0600686B384005D1FFF77C
:100FA000F3FD801B0328F7D36FE0686BF8218843BB
:100FB000A169C90001436963206A002867D0696894
:100FC0000C220A40082A00D1D0E63F0694490228A4
:100FD00028684DD101402960FFF7D6FD060028683A
:100FE000384027D0FFF7D0FD801B0328F7D34CE013
:100FF00000100240FFFFFBFFFFFFFEFF0421C9437B
:101000008842686B03D1042188436863CDE70421DB
:1010100001436963686B012188436863FFF7B4FD8E
:101020000600686B3840C7D0FFF7AEFD801B032871
:10103000F7D32AE0E86A0F218843E16A0143E962B5
:1010400068687D490140A06A0843616A014369609C
:101050002868790801432960FFF796FD0600286893
:10106000384014D1FFF790FD801B0328F7D30CE024
:1010700001402960FFF788FD06002868384006D047
:10108000FFF782FD801B0328F7D30320FEBD00205D
:10109000FEBD000000700040F2B582B004000127E0
:1010A000FF43012565480068284088420AD263480A
:1010B0000068384001436148016000682840029997
:1010C000884262D15E4E02202168014005D07168DD
:1010D000F0229143A2680A4372602168294042D0FD
:1010E0006168012902D13068800303E0022903D13D
:1010F0003068800103D448E03268104045D0706801
:101100000322904301437160FFF73EFD0090606849
:1011100001280CD170680C210140042923D0FFF76D
:1011200033FD0099401A26498842F3D319E002287A
:101130000CD170680C210140082914D0FFF724FD60
:101140000099401A1E498842F3D30AE070680C21C6
:10115000014008D0FFF718FD0099401A184988424D
:10116000F4D30320FEBD029834490968294088421F
:101170000DD2324800680740029838432F49086072
:10118000086805400298854201D00120FEBD207804
:10119000400705D570682B490140E068084370603E
:1011A00000F012F8284972681206120F895CC840D4
:1011B000264908600020FFF7D0FC0020FEBD00009B
:1011C00089130000FFFFFFEF30B589B004A800BF0E
:1011D00023A1102201F018F8684600BF24A11022B4
:1011E00001F012F81A490A681A480C231340082B18
:1011F00011D10F2304AC950C1D40645D6D46896AC6
:101200000B40E95CD20303D500F053F8604302E0E1
:1012100020001149484309B030BD0C4800687047B0
:10122000FFFFFFFE094800680C49094A1268520591
:10123000520F895CC8407047FFFFC2FF0020024088
:1012400000100240FFF8FFFF844700080000002064
:101250000410024000127A0000093D0074480008A2
:1012600002030405060708090A0B0C0D0E0F1010E7
:101270000102030405060708090A0B0C0D0E0F10E6
:10128000F446002804D4494200F013F84042604775
:101290004042002905D45FD000F00BF8404249429B
:1012A0006047494200F005F84942604703460B4356
:1012B000E6D40022030A8B420BD203098B4219D2D7
:1012C00043088B422ED2411A00D2014652411046A9
:1012D0007047FF2209023FD012068B4205D312123B
:1012E00009028B4201D31212090203098B4219D35E
:1012F00000E0090AC3098B4201D3CB01C01A524155
:1013000083098B4201D38B01C01A524143098B429E
:1013100001D34B01C01A524103098B4201D30B0187
:10132000C01A5241C3088B4201D3CB00C01A5241AC
:1013300083088B4201D38B00C01A524143088B4271
:1013400001D34B00C01A5241884200D3401A524187
:10135000CFD201461046704708B500F06FFF08BDB8
:1013600010B58207D30EFF249C40E2438907090E83
:101370009940030004D520481B071B0F083B00E0E1
:101380001E489B089B00C01803681A401143016067
:1013900010BD80B5FFF7E4FF01BD0121C006C00EFE
:1013A00081401748016070470121C006C00E81408E
:1013B00014480160704710B5401E802149048842DE
:1013C00001D3012010BD104C606003210020C043F8
:1013D000FFF7C6FF0020A0600721216010BD0A4969
:1013E0000428086803D1042202430A6070470422DB
:1013F00090430860704700001CED00E000E400E04E
:1014000000E100E080E100E010E000E080B500F0E5
:1014100001F801BD7047FEE7FFB5002327E0052571
:10142000B5403D43039E35609B4D2E68E5432E40FD
:101430004F68FF0300D52643974F3E607E682E40DD
:101440004F68BF0300D52643934F7E60BE682E4091
:101450004F68FF0200D526438F4FBE60FE683540BF
:101460004E68B60201D52C432500FD605B1C0D685B
:101470002C00DC4000D188E001249C4002942C40E8
:10148000F4D04D68022D01D0122D18D1DD08AD0029
:1014900045192E6A00965E07F60E6F463E71009F54
:1014A000BC466E4637790F26BE406746B743BC46FA
:1014B0000F696E463679B740664637432F62066835
:1014C0005D006F463D7103253F79BD40EF430097B6
:1014D0003D4635400E79B607B60F6F463F79BE40A0
:1014E0002E4306604D68012D05D0022D03D0112D2D
:1014F00001D0122D11D18668009D3540CE686F460F
:101500003F79BE402E4386604568029EB5434E68D3
:10151000F706FF0F9F402F434760C668009D354088
:101520008E686F463F79BE402E43C6604D68ED0021
:101530009CD55A4D2D6801262E43584D2E602D689E
:10154000EE07F60F0096009D554D9E08B600AD19AA
:1015500003952F689D072E0F0F25B540AF439025AB
:10156000ED05A84201D100255AE74E4DA84201D110
:10157000012555E74C4DA84201D1022550E74B4DBE
:10158000A84200D04BE703254AE7FFBDE2B584B08F
:1015900001000025404A19E00526BE40B04214D1A2
:1015A000019806680F20B840864301980660039EA4
:1015B000F043166806401660566806405660966806
:1015C00006409660D6683040D0606D1C0498E840B4
:1015D0004AD00120A84002900498029E064003963B
:1015E00003980028F1D06E000320B040C643009657
:1015F000086806400E60E80880000E18376ABC468E
:101600006807C70E0F20B84067468743376288686F
:10161000009E06408E604868029EB0434860C868DD
:10162000009E0640CE601E48AE08B60080190190AC
:10163000066803272F40BF000F20B8403040902697
:10164000F605B14201D10026A7E7164EB14201D1FD
:101650000126A2E7144EB14201D102269DE7134EA6
:10166000B14299D1032698E705B0E0BD0069084072
:1016700000D00120C0B27047002A01D081617047BC
:10168000816270470A4A1368034000D1704780B5F1
:101690001060FFF7DDFA01BD0004014018100240A0
:1016A000080001400004004800080048000C004801
:1016B0001404014038B504003DD0607F002803D1F8
:1016C00020772000FFF7BBF902206077CA2021684D
:1016D0004862532021684862FF25200000F0AAFAE2
:1016E000002824D120688168AB4A0A4082602068C3
:1016F000816862682369134362691A430A438260FE
:10170000E0682168086120680169A26812040A4340
:1017100002612068C16880229143C16020688068AE
:1017200080060AD4200000F06BFA002805D020685B
:10173000456204206077012032BD2068016C974A21
:101740000A4002642068016CA2690A4302642068AE
:10175000456201206077002032BDF2B50400207F91
:10176000012801D10220F2BD0120207702206077FC
:10177000206840210025002A806816D1014001D14F
:101780000099CD700098007800F07AFA0700009870
:10179000407800F075FA06000098807800F070FA42
:1017A000390432020A43104312E0014004D0009889
:1017B000007800F070FA01E00099CD700098007890
:1017C0000004009949780902014300988078084391
:1017D0000099C9780F040743CA2021684862532042
:1017E00021684862FF26200000F024FA00281FD15B
:1017F0006B4838402168086020688168674A0A4061
:10180000826020688168009AD268009B1B6913433C
:101810000B4383602068C16880229143C1602068C7
:10182000806880060BD4200000F0EAF9002806D07A
:10183000206846620420607725770120F2BD206889
:1018400046620120607725770020F2BD10B50C00BC
:101850000068816A616001694904490CA1600168FE
:101860004F480840010C8B069B0E2370030A6370DF
:10187000A07040200140E170002A0BD1207800F0D8
:101880000AFA2070607800F006FA6070A07800F024
:1018900002FAA070002010BDF8B504000F00207FF0
:1018A000012801D10220F2BD0120207702206077BB
:1018B0007878002A3DD1C10603D5EF2101400A31D5
:1018C0007970F87800F0DCF90500787800F0D8F944
:1018D0000600B87800F0D4F9290432020A43104314
:1018E00039784F030743CA20216848625320216892
:1018F0004862FF250026200000F09CF9002811D145
:1019000093483840216848602068C168802291432C
:10191000C16020688068800618D4200000F070F94B
:10192000002813D0206845620420607726770120C4
:10193000F2BD00F0B0F9B87800F0ADF9F878000425
:10194000797809020143B8780843C9E720684562FD
:101950000120607726770020F2BD10B50C000068EA
:1019600041687B480840010CE170C104C90E6170F8
:10197000A0700004400F2070002A0BD1E07800F026
:101980008AF9E070607800F086F96070A07800F065
:1019900082F9A070002010BDBFFF8FFFFFFFFBFF8B
:1019A0007F7F7F00F0B583B004000D00207F012809
:1019B00001D10220FEBD012020770220607720683F
:1019C00040210026002A806820D1014000D1EE701D
:1019D000287800F055F969464870687800F050F9A9
:1019E00069460870A87800F04BF907002020285CB1
:1019F00000F046F96946497809046A4612781202ED
:101A00000A431743E9780904394316E0014003D03B
:101A1000287800F040F900E0EE702020285C00F00B
:101A20003AF928780004697809020143A878084344
:101A3000E978090401432020285C00060843E9698D
:101A400001436F690F436868A96901430191CA2086
:101A50002168486253202168486220688168674A8B
:101A60000A4082602068C16880221140804A0A438F
:101A7000C260FFF789F805002068C168C90706D46D
:101A8000FFF782F8401B79498842F5D319E0C76116
:101A900001982168486420688168802252000A43C6
:101AA000826020688168802252010A43826080201F
:101AB000800270490A6802430A608A68104388609D
:101AC00006E0FF2021684862032060772677FEBD8C
:101AD000FF20216848620120607726770020FEBD44
:101AE00070B50400207F012801D1022070BD0125BE
:101AF000257702206077CA20216848625320216838
:101B00004862206881683D4A0A4082602068816896
:101B1000474A0A408260FFF737F806002068C1682C
:101B200029400ED1FFF730F8801B50498842F5D389
:101B3000FF2021684862032060770020207703207F
:101B400070BDFF21416265770020207770BD0000E5
:101B50003FFFFF00F8B50C00802149006162016879
:101B6000C869496C020C3F253F26164026707F2627
:101B7000070A374067700640A67040263240E27080
:101B80004904490C6160010E0D402021655449064D
:101B90000140E161384901406161002B11D1207899
:101BA00000F079F82070607800F075F86070A07827
:101BB00000F071F8A0702020205C00F06CF8203458
:101BC00020700020F2BD10B5040020688168C904AF
:101BD0000CD5C068C00509D52000FFF731F8206892
:101BE000C16880221140224A0A43C26080208002DC
:101BF000224908600120607710BD0000FFFEFFFF52
:101C000038B504002068C168A0229143C160FEF786
:101C1000BBFF05002068C068800607D4FEF7B4FF4C
:101C2000401B12498842F5D3032032BD002032BD4B
:101C3000FFEFFFFF70B5040020684025C168294010
:101C400011D10021C943C160FEF79EFF0600206844
:101C5000C068284007D1FEF797FF801B03498842E0
:101C6000F5D3032070BD002070BD0000E903000023
:101C70007FFEFFFF0004014080808080140401404B
:101C8000002101E0491C0A38C0B20A28FAD2090131
:101C90000843C0B2704701090A2251430007000FF0
:101CA0000818C0B27047FEE738B5B64CB648206099
:101CB000E1200002606080204001A0600020E06020
:101CC000C021C90021610C216161A061E061206235
:101CD00060622000FEF7EEF9AC4D28000B3000F0FA
:101CE000AFFAAA7A01002000FEF720FB31BD10B543
:101CF000A44C2000FEF762FB2000FEF710FA10BD96
:101D000080B58021C901A248FFF7B0FC012800D0AE
:101D1000002002BD38B59D4A10709D4D80242402DC
:101D20009020C005E1091278002A05D0022A0ED0C1
:101D30000BD3032A10D011E0FFF79EFC00222100F4
:101D40002800FFF799FC012032BD0122F4E70022B0
:101D5000FFF792FC0122F2E70122F9E7002032BDF1
:101D600030B5C14C894D29000B312000143000F0F2
:101D700073FA0C20A872E879C7210140302008438B
:101D8000E871C0202871E8793821014045200843D6
:101D9000E871CC2068726978A8780006000C0143CD
:101DA000080A20706978A8780006000C0143617069
:101DB000E878A070E01C2061A520E0700D20207163
:101DC00068790002A97908436071000AA0715A205D
:101DD0002169087330BD000070B588B004000E00A2
:101DE0001500684613A1202200F00EFA2068016851
:101DF0000122914301606846B100405860601003C1
:101E0000002D04D0022D09D004D3032D09D10020C8
:101E1000A06005E0A060C020C00001E0A0608008D4
:101E200020612000FEF746F90A20FEF7B0FE08B058
:101E300070BD0000B004000060090000C012000086
:101E400080250000004B00000096000000E100002B
:101E500000C2010038B54B4D002203212800FFF7D6
:101E6000BBFF0320FFF756FF484C0A20FEF78FFE0A
:101E700064230622211D2800FEF771F90028F4D101
:101E80000621201D00F014FAFA239B000622211DD2
:101E90002800FEF7CEF90028E7D1E0798209800614
:101EA000410F2800FFF798FF0020FFF733FF0621BE
:101EB000201D00F0FDF931BD38B5684615A10A684E
:101EC0000260304D002203212800FFF785FF032028
:101ED000FFF720FFC64C6420FEF759FE642303225F
:101EE00069462800FEF73BF90028F4D1FA239B004D
:101EF0000622211D2800FEF79CF90028EBD1E0798D
:101F000082098006410F2800FFF766FF0220FFF7D5
:101F100001FF31BDC1C1C10070B506000D00002434
:101F2000FFF7EEFE002807D1E4B2C82C04DA641CE7
:101F30000220FEF72CFEF3E7E4B2C82C21DA1348A6
:101F40000078002805D01420FEF721FE0020FFF7BE
:101F5000E1FE0A20FEF71BFEC823EDB22A0092B272
:101F600031000848FEF7FBF80A20FEF710FEFFF7E5
:101F7000C7FE0028FBD00A20FEF709FE0220FFF76B
:101F8000C9FE70BD6C000020003801405C010020DB
:101F900000040048F0B5A3B000269648447A007AC1
:101FA000009001A8882100F085F90098002859D0F8
:101FB000844201DB251A03E00A200099401A051922
:101FC00001AF8B48427881780906090C0A43100A50
:101FD00038708748427881780906090C0A437A707C
:101FE000C078B8702DE07C18E41CA52020700D206E
:101FF00060707F48407900027D4989790843A0706C
:10200000000AE070092060717A48EDB2A900491910
:1020100040182221415C2171233000F011F9A11DEB
:1020200000F01AF90A21F81C00F046F9A072000A23
:10203000E0725A2020736D1CEDB20A2D00D10025EC
:10204000761CF6B20D21714300988642CBDB6948BD
:10205000007A009A801A674A1072C91CC9B201A896
:10206000FFF75AFF23B0F0BDE001002070B5030078
:1020700010005F4D604C22696E793602AD792E43B7
:102080009670360AD670226951711371911D00F055
:10209000E3F80A21E01C00F00FF921698872000AB8
:1020A000C87210212000FFF737FF70BDF0B585B072
:1020B00001A80C2100F0FEF8002500264C4F380046
:1020C0000B3000F0BDF8805DA52802D1684606708F
:1020D00003E0761CF6B20C2EF1DB0C2E3DD0002670
:1020E00001AC38000B3000F0ABF869460978405C71
:1020F000A055684669460978491C017000780C288B
:1021000001D168460570761C0C2EEADBE07A5A286D
:102110006CD1A078E1780906090C084379790902A5
:10212000BA790A43904261D1092101A800F0C4F8AC
:10213000627AA17A0906090C0A43904256D12079A5
:102140006E280BD1601D00F07BF804002B4E701C34
:1021500000F076F8844249D1757147E00D2808D126
:10216000BFF34F8F264827490860BFF34F8F00BF4A
:10217000FDE7204FBE1CB17800291ED0F1798A00FE
:1021800051187918223108706846F1790170601D84
:1021900000F056F8694609788A00511879182331F9
:1021A00000F05AF8B079401CB071F079401CF07121
:1021B000F0790A2818DBF57116E0B070601D00F0A8
:1021C0003FF80E37390000F047F8B577F5772079FA
:1021D0006178092801D1317206E00B2801D17172B2
:1021E00002E0102800D171770120307005B0F0BDF9
:1021F0005C01002004000020E001002058000020C5
:102200000400FA050CED00E070B4103A03D378C96D
:10221000103A78C0FBD2530701D318C918C001D5B2
:1022200008C908C0D20704D30B880380891C801C0E
:10223000002A01D50B78037070BC70477047FEE729
:10224000C3788278417800781B021A43090212048D
:10225000084310437047FEE784460870000A487040
:10226000000A8870000AC87060467047094205D0AD
:10227000830705D00270401C491EF9D17047000049
:10228000130030B414001500103902D310393CC0CB
:10229000FCD2490700D30CC000D504C0890002D38A
:1022A0000280801C002900D5027030BC70470000FD
:1022B0000022DBE70022E3E7E1B581B000230A005A
:1022C000511ED2B2002A26D0019A12786D462A7089
:1022D000019A521C0192002500226E463778012691
:1022E0009640374206D02E000727BF1A0125BD4071
:1022F0003543EDB2521C082AEFDB1A002B02534083
:1023000008225D001B0402D50B4B6B4000E02B0044
:10231000521ED4D0F5E70021012090409DB2054225
:1023200005D00F20851A0120A840084381B2521C15
:10233000102AF1DB0800E6BD05800000FEB5002094
:1023400069460871FEF7FCFB00F0BAF900F078FA74
:1023500000F0F6F9204C2500D83520482860962654
:10236000B6016E600020A860E86028610420686102
:102370000020A861E861286268622800FDF79AFEE3
:10238000002800D0FEE727005437C9487861BE61B5
:102390000020F861386278620C20B8620020F86290
:1023A00038637863B86320006830FDF783FE002847
:1023B00000D0FEE700F0F6F9BE4828670520686700
:1023C000BD48E867A867A42040002018029000F0EC
:1023D000E1FA002804D0FEE7040000200044004099
:1023E0000720FEF7E1FF00F0EBFCB448FEF7CFFB5F
:1023F0000720FEF7D2FF54212000FFF75BFFAC203F
:10240000400026180F213000FFF754FF0025ED4350
:102410002100300000F023FE002801D12800FEBD7D
:10242000FFF79EFCFFF716FDFFF746FD012000F0C9
:10243000EFFE6420FEF7ABFB002000F0E9FE642015
:10244000FEF7A5FB012000F0E3FE6420FEF79FFBF2
:10245000002000F0DDFE6420FEF799FB0F203870AD
:10246000210055312800FFF7F7FE21005E310020E2
:10247000FFF7F2FE210062310520FFF7EDFE01209B
:10248000787120001230FFF7DBFE0600200062307A
:10249000FFF7D6FE21005A313018FFF7DDFE00F0BD
:1024A00096FF2A0001000F20FFF7E0FDFFF71FFC59
:1024B00001F015F801F0BDF8651C52E000F09DFC3C
:1024C0006946087020005530FFF7BAFE02006846E2
:1024D00001783878FFF7CAFD20001230FFF7B0FE10
:1024E00021001631FFF7B8FE20001230FFF7A8FEDA
:1024F00021001A31FFF7B0FE6878002809D00020CB
:102500006870200001F0CAF9E879002801D0FFF7CF
:1025100041FD287800280AD000202870200001F012
:102520002CF9A879012802D1200001F0B7F9A87888
:1025300000280AD00020A870200001F01EF9A87918
:10254000012802D1200001F0A9F93100200000F09B
:10255000EBFC002805D100F050FC0100A87A01F046
:10256000C4F9029800F03CFA00F061FC002601F08A
:102570002AF8FFF7C5FB0028FBD001F051FAE878F4
:10258000002800D00126E878002802D0E878042846
:1025900008DBE878082805D0E8780E2802D0E8782B
:1025A0000F2809D178790028A6D012213800FFF72A
:1025B00081FE002078719FE7E878042813DBE87833
:1025C000122810DA7879002896D020001230FFF710
:1025D00037FE009020006230FFF732FE21005A31B2
:1025E000009A101886E77879002885D020001230EC
:1025F000FFF726FE009020005A30FFF721FE0099D9
:10260000814200D268E720005E30FFF719FE21000A
:102610005E31401CFFF720FE20005E30FFF710FE09
:10262000052803D2210062310A2019E020005E3023
:10263000FFF706FE052809D320005E30FFF700FEF5
:102640000A2803D2210062313C2009E020005E30DC
:10265000FFF7F6FD0A2805D32100623196204000DD
:10266000FFF7FAFD20001230FFF7EAFD009020008E
:102670006230FFF7E5FD21005A31009A1018FFF78C
:10268000EBFD38780F2802D100F0A1FE18E70828EA
:1026900000D013E701A800F055FF002800D11BE788
:1026A00020005530FFF7CCFD0200297B11E7000028
:1026B0000038014000300040350C0000B80B00002D
:1026C00010B594B01A20089001200B900D901021A5
:1026D0000C910E910F900024109408A8FEF72AFB8D
:1026E000002800D0FEE7072000900194902002907F
:1026F0008020C000039000216846FEF7CDFC002832
:1027000000D0FEE7954804900694C009059004A8FF
:1027100001F028FA002800D0FEE7FEF77EFDFA213E
:102720008900FEF7C6FDFEF746FE0420FEF757FEC1
:10273000002200210020C043FEF72BFE14B010BD84
:102740003EB5874C8748206000206060A060E06054
:102750000125256104216161A061E561206260625B
:10276000FF21C231A162E06220636563200001F0B5
:1027700077FA002800D0FEE7009528030190032097
:1027800002906946200001F054FB002800D0FEE7CB
:10279000112000906946200001F04BFB002800D07A
:1027A000FEE737BD70B590B06F4D704828600024CB
:1027B0006C601420A860FA20C000E8602C616C6195
:1027C000AC612800FEF776FF002800D0FEE70BA8DA
:1027D000048084700E940F9400220BA92800FEF749
:1027E000BCFF002800D0FEE7012668460670467050
:1027F0008670C470002269462800FFF74DF8002853
:1028000000D0FEE701A8048084700294049405942B
:102810000694079408942030067030020A90002233
:1028200001A92800FFF7BEF8002800D0FEE7F10458
:10283000280001F0C5FB002800D0FEE710B070BDF5
:10284000F0B587B080210903494802680A43026055
:1028500002681140009100998021C90302680A436F
:10286000026002681140009100998021890202688B
:102870000A43026002681140009100998021C90258
:1028800002680A4302600068014000910098E02657
:102890007600002231009020C005FEF7EDFE354F96
:1028A000002235493800FEF7E7FE012251033800C7
:1028B000FEF7E2FEC02000020190032402940025EE
:1028C000039501A92D48FEF7A7FDC32001900294AE
:1028D000039501A92A48FEF79FFD2A48019002941A
:1028E000039501A99020C005FEF796FD30200190C8
:1028F0000295039501A99020C005FEF78DFD019674
:10290000012602960395049501A99020C005FEF7C3
:1029100083FD1D4801900294039501A93800FEF73C
:102920007BFD1A48019002960395049501A9380091
:10293000FEF772FDB003019015480290039501A9BE
:102940003800FEF769FD002200210720FEF721FD77
:102950000720FEF722FD07B0F0BD000001000100D6
:102960006C010020002401400002002000280040EB
:1029700014100240000400483084000000080048A1
:102980000014004801980000CF1B000030A4000094
:102990000000211038B5040001D1012032BD2068AB
:1029A000124901601249016061684160A16881605B
:1029B000FEF7EAF805002068C168002906D0FEF796
:1029C000E3F8401B2828F6D3032032BDE1680269F2
:1029D0008A4201D0016101E006490160002032BD58
:1029E000044900680160002070470000CCCC000062
:1029F00055550000AAAA000000B585B040200090FF
:102A000001200190002002900390EFE170B586B0A4
:102A100001009020C00500243025491E012906D957
:102A2000891E1DD0491F1BD05D3919D01EE00095AD
:102A30007E49019102946946FEF7EEFC009501255E
:102A40000195029403947A4E69463000FEF7E4FC47
:102A5000680300900195029503946946300003E0F5
:102A60000095019402946946FEF7D6FC06B070BD4D
:102A700010B56F4C012210212000FEF7FDFD44E24D
:102A800080B501009020C005002907D00122402117
:102A9000FEF7F2FD0A20FEF77AF801BD0022402180
:102AA000FEF7EAFD01BD38B59024E40510212000B1
:102AB000FEF7DCFD050020212000FEF7D7FD002DEC
:102AC00005D1002801D1032032BD022032BD0028EB
:102AD00001D1042032BD012032BD82B0002101911C
:102AE0000AE0FA218900019101994A1E0192002908
:102AF000FAD169460978491C6A4611706946097815
:102B00008142EED302B0704738B50500FFF7B0FF41
:102B1000A94C2570A5700020A1688847002060702E
:102B2000A64908700120C87031BD38B5A24C617843
:102B3000002947D0102801D0202843D100F0EBF91C
:102B40000500607803281ED1032D02D02079A84209
:102B500004D10320FFF7D8FF162012E0022D09D17F
:102B6000E078102801D113200BE0E078172829D154
:102B7000182006E01720E178132902D0E1781829FF
:102B800020D1E07031BD607801280CD18B48012D37
:102B900003D120300078002809E0022D12D1002155
:102BA0002030017031BD607802280BD1012D09D190
:102BB0000F20FFF792FF00F0AEF9A84202D10120EA
:102BC000FFF7A2FF31BD10B57B4C607800281CD008
:102BD000FFF74EFF00F09FF920706078032809D1BD
:102BE000E078172802D0E078182803D12178102047
:102BF000084300E020782178A170A1688847002070
:102C00006070A34901224A70087010BD6B49887139
:102C10000120694A5378022B02D11378012B03D08B
:102C20005278042A00D00220C87170470000311089
:102C300000040048F1B582B05F4C6078002801D0F4
:102C40000920FEBD5D4E707000F0D7F82070212085
:102C5000305C6946097A009104210125009A032A13
:102C600048D102222023F35C002B0AD12378012BC8
:102C700002D02378022B01D1217103E02378042BA9
:102C800000D122712378022B0CD162700022102116
:102C9000A448FEF7F1FC01222021A248FEF7ECFC3B
:102CA000032085E02278042A01D1002829D0207849
:102CB000032806D000F018FCFF2837D0B17A8842EC
:102CC00039D327786846007A60702020305C0099FC
:102CD000032947D1002850D1042F2ED100221021E2
:102CE0009048FEF7C9FC012220218E48FEF7C4FC63
:102CF000122035E0012AE4D12278042AE1D100280B
:102D000010D12122B5546170012210218548FEF7AF
:102D1000B3FC002220218348FEF7AEFC202175542D
:102D2000032045E000F0E0FBFF2801D10620FEBDB6
:102D3000B17A8842C5D20520FEBD012F01D0022FF5
:102D400016D1012210217748FEF796FC002220219F
:102D50007448FEF791FC012F01D1102000E01120F2
:102D6000E07014E0012906D1002806D1012F04D11A
:102D70006070A1688847FF20FEBD002210216948CD
:102D8000FEF77AFC012220216648FEF775FC06203A
:102D90002021715C002907D00099012901D10A2066
:102DA00006E0032905D103E02178042900D1082099
:102DB000307335700020FEBD20020020040000208A
:102DC00010B50120FFF75CFEFFF752FE7C4C00209F
:102DD000607000F012F820707A48A0607A48E060D5
:102DE0007A4820610020FFF74BFE10BD6946902015
:102DF000C005FEF711FB05B000BD38B5704C244D81
:102E0000A87F7349097801430FD10320FFF7FEFD26
:102E1000FFF7F2FD0120FFF733FEFFF744FEA0703D
:102E20000120A8770020FFF72BFEA07832BD0020FC
:102E300017498877704766480178002900D07047A5
:102E400010B501240470FFF7D7FD0120FFF718FE2D
:102E50000120FFF7DBFDFFF726FE594988700C487B
:102E600084775C4C012301221021200000F094FBA8
:102E7000012301222021200000F08EFB01230122EA
:102E800040219020C00500F087FB10BD000000002D
:102E90000400002010B50720FEF786FA0320FFF794
:102EA000B5FD0020FFF7ECFD002049490870072020
:102EB000FEF773FA1B4C002303221021200000F0C0
:102EC0006BFB002303222021200000F065FB9024EF
:102ED000E405002301224021200000F05DFB0022D8
:102EE00040212000FEF7C8FB002301221021200012
:102EF00000F052FB012210212000FEF7BDFB002351
:102F000001222021200000F047FB01222021200087
:102F1000FEF7B2FB10BD10B5294CFFF7C4FDA07041
:102F2000A07810BD00040048F8B5040028480078D7
:102F3000084301D00120F2BDFFF75FFF0500204EDE
:102F40003078854239D020001230FFF779F921001E
:102F50001A31FFF781F920001230FFF771F91634AA
:102F60002100FFF779F935701B4C66202070002690
:102F7000F643611C3000FFF76FF96079002816D125
:102F800021000A31FFF768F921000E310520FFF713
:102F900063F9012060711148FFF752F90700200022
:102FA0000E30FFF74DF9A11D3818FFF755F9320023
:102FB00029006620FFF75AF8BCE70020F2BD0000A8
:102FC000200200200D2C00082B2B0008C72B000826
:102FD0006002002000040048580000201600002075
:102FE000F0B500240EE03700413F1A2F01D2373EE2
:102FF000F6B207883F01374307806D1C042D04DBC0
:10300000641CE4B2944211DA0025A6008E59EF0048
:10301000FE40F6B23700613F1A2F01D2573EE7E774
:103020003700303F0A2FDED2303EE1E7F0BD10B569
:1030300030220270427000220B780124A41AA400EE
:10304000E3401B071B0F0A2B01DA303300E0573334
:10305000DBB28418A370521C022AEDDB10BD70B5E0
:1030600088B005000E0062480168624A914201D0B2
:10307000002052E04168019181680291C16803918A
:10308000016904914169059180690690012201A9B5
:103090006846FFF7A5FF684600886870000AA870B8
:1030A00001AC0122211D6846FFF79AFF684600889F
:1030B000FF21FEF7FBF8687168460088FF21FEF7E4
:1030C000F5F8A971684600881E21FEF7EFF829720D
:1030D0000122210008316846FFF782FF6846008818
:1030E000E870012221000C316846FFF779FF68463D
:1030F0000088B0720122210010316846FFF770FF8E
:1031000068460088F0720122143421006846FFF7F7
:1031100067FF68460088F077012008B070BD72B57F
:103120008BB004000025069531480168314A914270
:1031300018D14168009181680191C16802910169CB
:103140000391416904918069059000F099FF07950A
:10315000274E08960120099006A907A801F000F85B
:10316000002801D0012040E06846002C03D0022C4A
:1031700009D004D30CE003950BA90C3006E00495AC
:103180000BA9103002E005950BA91430FFF74FFF93
:10319000184A00233100022000F03CFF009A00236F
:1031A0001549022000F036FF019A0023134902203E
:1031B00000F030FF029A00231149022000F02AFF9C
:1031C000039A00230F49022000F024FF049A0023F1
:1031D0000D49022000F01EFF059A00230B49022032
:1031E00000F018FF00F053FF00200CB070BD00008D
:1031F00000F0000846524F4704F0000808F00008AD
:103200000CF0000810F0000814F0000818F0000896
:1032100070B586B005008026F6000096012001906A
:103220000020029003900F4C69462000FEF7F4F84E
:10323000022D04D02A0031002000FEF71DFA3100D3
:103240002000FEF713FA002D05D0022D03D006D280
:10325000012804D101E0012802D0002000E0012073
:1032600006B070BD00040048F8B50500287900904C
:10327000FF240026401E1FD0401E21D0401E26D015
:10328000401E32D0401E31D0401E32D0401E32D0BF
:10329000401E34D0401E54D0401E56D0401E56D042
:1032A000401E57D0801E012829D9801E54D0401EB0
:1032B00055D054381FD054E0FFF7BDFD032002E085
:1032C000FFF7B9FD0120FFF7B5FC040056E0FFF75A
:1032D00094FD04002F7928000E30FEF7B1FF0200A4
:1032E00021003800FEF7C2FE6EE00120FFF790FFDC
:1032F000EFE70220FAE700F0A3FF040031E0FFF758
:103300007CFD0700012F13D100F0EEF804000098B7
:103310000F2806D1A87A844201D2112421E0012489
:103320001FE008281DD1A97A8C42A441E40F18E0BF
:1033300000980F2801D13C0013E0082811D1002487
:103340000FE0A97AFFF7EBFEC3E7AC7AC2E7E97AB0
:103350000120F7E7EC7ABDE7E97F0220F2E7EC7F96
:10336000B8E70098401E012808D9801E0928B1D965
:103370000B380328AED95738ACD025E0200005D053
:10338000601F012811D9FA380ED0F1BDE879012863
:103390001CD02C790E352800FEF752FF0200632165
:1033A0002000FEF763FEF1BD0024FFF773FD2F79C7
:1033B00028000E30FEF744FF020021003800FEF71F
:1033C00055FE6E71EE7100E06E712E71F1BD38B573
:1033D0000024FFF712FD0500012D09D100F084F84B
:1033E0000449897A884200D201242001054328003B
:1033F00032BD000004000020FEB50023DB4301A81D
:103400000021002206C028205D4C215CFF2909D143
:103410000300C11E08D42018C01E0078FF2803D165
:103420000B0001E0401EF0D5002101AA17E06D4617
:10343000E618B6782E70E5186D786E463678AE19B7
:10344000F6B2E718FF78BE4206D12D026E463678F6
:1034500035434E009553491C03290DD01B1F002BEB
:1034600002D4E55CFF2DE2D0012901D11088FEBD18
:10347000022901D15088FEBD11880D460023002489
:1034800001267700D75B8F4201D239003300BD425D
:1034900001D23D003400761C032EF2DB0021DBB2AA
:1034A000994202D0E4B2A14202D1491C0329F6DBC1
:1034B0004800105AFEBD80B532483349016096215C
:1034C0008901416000218160C16001610422426183
:1034D0008161C16101624162FCF7ECFD01BD80B513
:1034E0002848FCF71CFE01BDF8B5FFF7E4FF274FA5
:1034F0008026B601002231003800FEF7BDF8214DCC
:10350000FA23DB0028221E492800FCF792FE040063
:10351000012231003800FEF7AFF80A20FDF737FB33
:103520002800FCF7FCFD002C01D0FF20F2BDFFF7C6
:1035300063FF0A21FDF7BAFE80B2C92800DBC8206C
:10354000C0B2F2BD10B50400FFF7CEFF2070002C12
:1035500001D1002010BD0E494A7B8B7A834204D3EF
:10356000002A07D10120487310BD002A02D0002094
:10357000487303E007484079002800D0012010BDBF
:10358000B8010020DC000020004400400004004896
:10359000040000205800002010B586B004000091FF
:1035A0000192032A09D0002B01D1002004E0FEF78C
:1035B0005DF8012800D00220029069462000FDF746
:1035C0002BFF06B010BD10B5A54CA078002826D161
:1035D000E078002823D16078002820D120780028C6
:1035E0001ED1052000F040FAFEF781FB9D4C2068BB
:1035F000012188432060012000F0A6FEFDF774FB46
:10360000607AFB2101406172206801210143216041
:1036100020688007FCD5FFF753F8FEF745FB10BD87
:10362000207B0028FBD0207B00F01EFA00202073B6
:10363000DAE7F0B587B08C480090032601960024A5
:10364000029469469020C005FDF7E6FE8748009089
:103650000196029469468648FDF7DEFE854F009785
:103660000196029469468448FDF7D6FE7D4D68694F
:103670008249014069610097019602946946804839
:10368000FDF7CAFE7F4869690140696169694022A6
:1036900091436961E9697C4A0A40EA61E96901404C
:1036A000E961A969794A0A40AA61E969784A0A4048
:1036B000EA610121C943AA690A40AA61AA69754B56
:1036C0001340AB61EA6902239A43EA611022D243B4
:1036D000EB691340EB61EB696F4C1C40EC61C84B2C
:1036E000AC691C40AC61AC69C64E2640AE61C64CAC
:1036F000AE692640AE61EE69C24F3740EF61EE69B8
:10370000644F3740EF61AE69C04F3740AF61042668
:10371000F6436F6937406F616F6917406F61AF693A
:103720003840A86180204005EF690743EF61EF69E9
:10373000384005900598E8690240EA6168690840E8
:103740006861286808402860286803402B60286862
:1037500004402C60286A08402862286A06402E62CD
:10376000686B01406963686B0421014369632868E1
:10377000A7490140296007B0F0BDF8B50400251D38
:10378000287800286BD06878012868D1A878009044
:103790000026E87802285ED120001230FEF750FDA6
:1037A00021001A31FEF758FD20001230FEF748FDC7
:1037B00021001631FEF750FD2D4F2878022816D132
:1037C000002210213800FDF757FF01222021380088
:1037D000FDF752FFC820FDF7DAF901221021380069
:1037E000FDF74AFF012220213800FDF745FF142094
:1037F000FDF7CDF9002210213800FDF73DFF002232
:1038000020213800FDF738FF2878012802D02878D9
:1038100002280FD1FFF73EFB009800280AD0C0060F
:1038200008D400F00DFD142804DA0098202101438B
:10383000C9B200912F780E342000FEF701FD02007E
:103840000099C9B23800FEF711FC2E776E77EE7042
:103850002E70AE7002E0E878012800D16E70F1BDE4
:10386000040000200010024083FE0000CF1B000077
:1038700000040048FFFF000000080048FFFFF7FFBA
:1038800000140048FFFFBFFFFFFFDFFFFFEFFFFF58
:10389000FFBFFFFFFFF7FFFFFFFEFFFF10B50400B4
:1038A0002079002820D0607900281DD120791228A5
:1038B00005DB2079652802D00020207110BD012091
:1038C000607120001230FEF7BBFC21001A31FEF7B8
:1038D000C3FC20001230FEF7B3FC21001631FEF7C6
:1038E000BBFC2000FFF7C0FC10BDFEB506000F00BA
:1038F000484C20001230FEF7A3FC050020001630D3
:10390000FEF79EFC019020001A30FEF799FC009013
:10391000002069460872012F4CD10198A84203D2B9
:10392000281AB04208D245E0854243D23A482818C6
:103930000199401AB0423DD320001230FEF780FCBE
:1039400021001631FEF788FC02A8FFF7FBFD0028D6
:1039500030D020001230FEF773FC21001A31FEF740
:103960007BFC2E4E08203070711C0020C043FEF7F7
:1039700073FC7079002817D131000A31FEF76CFC16
:1039800031000E310520FEF767FC01207071200028
:103990001230FEF755FC070030000E30FEF750FCE9
:1039A000B11D3818FEF758FC0022D243617B082075
:1039B000FEF75CFB0098A84206D2281AE17F3C2261
:1039C000514388420BD2F7BD854218D212482818BD
:1039D0000099401AE17F3C22514388420FD32000D6
:1039E0001230FEF72DFC1A342100FEF735FC00F0F2
:1039F00027FC01000022D2436520FEF737FBF7BD0C
:103A0000FFFFFEFFFFFFFDFFFFFFFBFFFFFDFFFFCF
:103A1000FFFFFFFE0400002080510100580000203D
:103A200030B587B001A81421FEF744FC4BA0006814
:103A30000090454C002201A92000FDF707FF01A8D6
:103A400042490278E1231B015A4343783C256B43EA
:103A5000D21880781018FEF7FFFB0022694620007C
:103A6000FDF77BFF07B030BDF0B593B007000DA8A0
:103A70001421FEF71FFC00BF39A00068029003A8C4
:103A80002821FEF717FC00242F4D00220DA9280045
:103A9000FDF7DCFE002202A92800FDF75EFFE1260B
:103AA00036010DA80178714342783C235A438918A6
:103AB0008078081826490A68904201D113B0F0BDF9
:103AC0000860C019019000238022520003A9280039
:103AD000FEF740F880200006089003AF01983100FF
:103AE000FDF7E7FB1821FDF7E4FB39700198310081
:103AF000FDF7DFFB009108463C21FDF7DAFB78700B
:103B000000983C21FDF7D5FBB970802149002800C1
:103B1000FDF7E6FF002806D1002203A92800FDF7E3
:103B200041FF0028CAD00520FDF731F8641CE4B23B
:103B3000032CEADBBFF34F8F064807490860BFF349
:103B40004F8F00BFFDE7000000020020160000209C
:103B5000580200200400FA050CED00E0000000000F
:103B600000000000F8B50400374D2068C00356D5AA
:103B70000026802040052968014007D129680143BB
:103B80002960296808400090009801262F480068A5
:103B9000C00512D42D480068A90D01432B480160CF
:103BA000FCF7F2FF070029480068C00505D4FCF7C0
:103BB000EBFFC01B6528F6D323E0C02189006868AD
:103BC000084020D06268114088421CD069682048B3
:103BD00008406968802252020A436A6069681D4A87
:103BE0000A406A606860C0070DD5FCF7CDFF07008A
:103BF0006868800707D4FCF7C7FFC01B16498842D6
:103C0000F6D30320F2BD686811490140606808439B
:103C10006860002E03D02868104901402960207890
:103C2000C00705D5686903218843A168014369611C
:103C30002078800605D5686910218843E168014332
:103C400069610020F2BD00001C10024000700040BD
:103C5000FFFCFFFFFFFFFEFF89130000FFFFFFEFE8
:103C6000F8B504000025002C01D10120F2BD606CE4
:103C7000002805D1A064402160542000FCF7C2FE5A
:103C800010210122606C084003D1236804209E6843
:103C9000064000D090E0676C604E3E4002273743FC
:103CA00067649E68B607B60F012E05D11E681640E0
:103CB0000FD1DE6836040CD4DE681827BE43A7682F
:103CC0003743DF6023681E69B600B608676837436C
:103CD0001F612368DE68524F3740DF60636B012B42
:103CE00001D0860200E000262369022B01D100905A
:103CF00000E00095236AA0698003E769FF0307439A
:103D0000580338430643E0683043009E0643206B67
:103D100040003043666A012E0CD1002B03D1030012
:103D20000803184306E0636C20261E436664A36CF8
:103D30001343A364A36AFF26C236B34203D006002E
:103D4000E06A184330432368DE680643DE60A36BF5
:103D50000E06B3420DD0012B0BD0022B09D0032B42
:103D600007D0042B05D0052B03D0062B01D0072B41
:103D70000CD123685E690727BE435E6123685E69D4
:103D80003827E75D7F077F0F37435F610223DB43FF
:103D90002668F668234F3740874205D1A564606CDA
:103DA00003401A4362640BE0606C03401943616492
:103DB000A06C1043A06402E0606C014361640125C3
:103DC0002800F2BD70B505000026002004242968F3
:103DD000896821401FD14021695C01291BD0012144
:103DE0004022A954E969012904D0280000F0A0F874
:103DF000002811D1696C0C4A0A40A1011143696481
:103E0000AE6440216E541C212A68116029688A68BA
:103E100014438C6070BD022070BD0000FFFEFFFFE8
:103E20001902FEFFE7FF3F83FEF1FFFF0068006C11
:103E30007047F2B582B004000025002600954020AE
:103E4000205C012801D10220FEBD01204022A054A7
:103E500022689168490762D40299096888400190F4
:103E6000802000044108029B5B684C4FBB42936A70
:103E7000019F45D01F439762A26B43019A4221D014
:103E8000012A1FD0022A1DD0032A1BD0042A19D0D0
:103E9000052A17D0062A15D0072A13D02268029BBC
:103EA0009B6857697F077F0FBB420BD05369072779
:103EB000BB43536122685369029F3F7A7F077F0F9C
:103EC0001F435761029A1268102A02D0112A2BD17F
:103ED00008003749096808433549086002980068B6
:103EE000102821D1334800683349FDF7E2F90A214F
:103EF000484300900098002816D00098401EF8E72C
:103F0000BB439362029A1268102A02D0112A0BD185
:103F100008002749096881432548016004E0616C75
:103F200020220A4362640126403425703000FEBD21
:103F3000F8B50400002000902068012581688907F9
:103F4000890F012905D10168294023D1C1680904DD
:103F500020D410268168194A0A401AD18168294361
:103F60008160144800681449FDF7A3F901E0009846
:103F7000401E009000980028F9D1FCF705FE0700CC
:103F800020680068284005D1FCF7FEFDC01B03280F
:103F9000F6D305E00020F2BD000000000110000093
:103FA000606C06436664A06C0543A5640120F2BD05
:103FB000082701400000002040420F001700008049
:103FC00030B5027F012A01D1022030BD01220277E3
:103FD00002234377CA23046863625323046863623D
:103FE00003689C68004D01E0FFFFF7FF25409D60DE
:103FF00003689C682143996001688B68D4051C4361
:104000008C60FF210368596242770021017700200C
:1040100030BD0000F2B50CB404003C4E307E0128E7
:1040200001D10220FEBD01253576464800F047F853
:104030000027002822D1012C04D0022C01D1022516
:1040400000E00425002401E0641CE4B2AC4215DA6F
:10405000684603C8220100F093F981B20298620019
:10406000801800F021F8374800F029F8364909682F
:1040700001229143344A11600028E5D03776FEBD15
:104080003348C168090600D508E0012070472E4872
:10409000016880220A430260002070472D490160B8
:1040A0002D4901600020704710B50022174BDA61DE
:1040B000254A136801241C431460018010BD70B5AB
:1040C0000500FCF761FD0600204C2068C0070CD5F8
:1040D0000020C0438542F8D0002D04D0FCF754FDE9
:1040E000801B8542F1D2032070BD20202168014051
:1040F00000D020602068C00602D42068400703D5A5
:1041000000F006F8012070BD002070BD38020020CC
:1041100030B50022114810230C490C681C4004D013
:10412000C26902241443C461102204230C681C4099
:1041300006D0C46901252543C5611000042202434D
:104140000A6030BD50C30000102002400C20024025
:104150000420024023016745AB89EFCD38020020DF
:10416000F3B581B001200124294D297E012901D117
:104170000220FEBD2876274F0198006801280FD144
:104180002548FFF79CFF00282FD100F032F8224885
:10419000FFF795FF0400386804218843386024E065
:1041A0001D48FFF78CFF00281FD10020C043029953
:1041B00008600198466801E0480236180198806856
:1041C000800201994968401886420ED2300000F002
:1041D00025F81148FFF773FF04003868022188436F
:1041E0003860002CE8D00298066000202876200075
:1041F000FEBD00200649C8610648016804220A4342
:104200000260016840220A4302607047000000001B
:10421000380200201020024050C300000021064A4E
:10422000D16106490A68022313430B60486008689D
:10423000402202430A6070473802002010200240EA
:10424000F0B585B080208000374909680143364ABF
:1042500011601168084000900098344C02202061E1
:104260002000FFF7FDFC112001908020400102900A
:104270000327039701A92000FFF7DBFD2C480688E0
:10428000200000F08DF82000FFF79CFD0425206839
:1042900000682840FBD0300000F0DCF8254900F031
:1042A000E8F806002000FFF7C1FD00F0D3F8010098
:1042B000300000F038F90090012626612000FFF759
:1042C000CFFC0196A8020290039701A92000FFF7F6
:1042D000B0FD2000FFF776FD206800682840FBD085
:1042E0002000FFF7A3FD00F0B5F8009900F0C1F839
:1042F000114900F018F9114900F06AF9104900F06D
:10430000B8F800F0F1F9C4B2652C00DB64240A208F
:10431000FCF73DFC044800680A490140024801607E
:10432000200005B0F0BD00BF181002406C01002055
:10433000BAF7FF1F3333534000F07F45C4EAA1BFF3
:104340004D331643FFFDFFFF10B50B4A13680324DE
:10435000A343184310600948026804231343036011
:10436000012901D130BF02E040BF20BF20BF01685A
:1043700004229143016010BD0070004010ED00E088
:10438000D2B2203A03D30800D04000217047203237
:10439000D141D04048409140D14048407047FEE76D
:1043A000F0B583B00400002500274020205C0128E0
:1043B00001D10220FEBD0126402166542068032160
:1043C00082680A40012A0BD10268324002D1C268D9
:1043D000120405D5606C202101436164012732E09D
:1043E000636C1B4A1A40022313436364C268114082
:1043F0000191C16803229143C160206881688022D5
:1044000012060A438260FCF7BFFB009020688168B7
:1044100000290FD5FCF7B8FB0099401A0328F5D303
:10442000606C02218843102101436164403425708F
:104430000120FEBDC168019A0A43C260606C02217E
:10444000884306436664403425703800FEBD00BFD3
:10445000FFFEFFFF9D2102000AD002D4491E9218E0
:10446000FCD5C905100A1206524100D3012A484161
:10447000704730B405004D400122D20715404B185B
:104480000418240E30D01B0E34D0FF2C36D0FF2B56
:104490003CD0E4180002090210431143000A090A43
:1044A0009446C2B24A43000AC3B24B43000A48438F
:1044B000110A5B18190A12061B0C1A43120A091872
:1044C00001D44918641E080A7F3C23DBFE2C08DA5D
:1044D000E40509061143634699416041284330BC15
:1044E0007047FF20C005F9E728001B0EFF2BF6D10F
:1044F000D043F4E72800FF2CF1D1F9E74002F7D1CF
:10450000FF2B01D14902F3D1E005E7E7D8054902C5
:10451000E4D0EDE743020020641CDFD15B129B1C5A
:10452000DCD9D805DAE730B405004D400122D207C6
:1045300015404B180418240E28D01B0E2FD0FF2C2A
:1045400034D0FF2B37D0E41A000209021043114384
:1045500043084808D10D1B1A02D2641EDB181B1831
:10456000DB18834200D31B1A4941F9D37F3426DD7F
:10457000FE2C08DAE4054808C90719439141604157
:10458000284330BC7047FF20C005F9E728001B0E08
:1045900003D0FF2BF5D14902F3D0D043F1E7FF2C34
:1045A00001D14002F9D1FF20C005E9E74002F4D172
:1045B000FF2BF8D1F1E728004902E2D0EDE70B022A
:1045C00000202442DCD15B129B1CD9D9D805D7E747
:1045D0000122D20703004B402ED4431A01D2C01A45
:1045E000C91830B44B180418240E1B0E22D0FF2C0F
:1045F00020D0E31A182B1DDC09021143C40D641EE0
:104600000002104394461925ED1A0A00AA40D94029
:10461000451801D36D08A41CE405D209280A2D060B
:104620002A436546AA41604103181B0EFF2B01D3A4
:10463000C00DC00530BC7047514001E05140CCE78F
:10464000431A03D2C01AC9185040514030B44B1815
:10465000090211430418240E1B0E40D0FF2C3AD03F
:1046600025009D410BD31ED8C50D4002401A0BD327
:10467000ED050100400AC90591416841DAE7C50D21
:1046800040024918401AD5D001214008491C0018A1
:10469000FCD58C4204D36D1A000AED054019C9E718
:1046A000E8051040C6E7182DC4DCAC1C0D00E14045
:1046B000E5414D40012D4941C40D00021043451A0A
:1046C00001D46D199543641EE405280A2D06954111
:1046D000604130BC7047FF2BACD1D843AAE72442DD
:1046E000A8D10020A6E7FEE70122D2070118090E93
:1046F0007F3910D449421F310FD4001805D2C001B0
:104700001043C84000D5D0437047C0011043C84093
:1047100005D440427047002070470042F3D5100096
:104720007047FEE71148016801220A4302604168B0
:104730000F4A0A40426001680E4A0A40026001685E
:104740000D4A0A40026041680C4A0A404260C16A50
:104750000F229143C162016B094A0A400263416B17
:1047600001229143416300218160704700100240A3
:104770000CB8FF08FFFFF6FEFFFFFBFFFFFFC0FFC7
:10478000ECFEFFFF00000000000000000102030437
:104790000607080930B401210268001D002A0FD065
:1047A0000368C318446808300C4202D04D466D1EA1
:1047B00064191D6825601B1D241D121FECD0F8E72D
:1047C00030BC704710B5074979441831064C7C4419
:1047D000163404E0081D0A68891888470100A142C0
:1047E000F8D110BD0800000028000000D3C4FFFF6E
:1047F00060020000040000200000000099FFFFFF9D
:1048000004000000940000000000002000000000F0
:1048100000F00BF8002801D0FFF7D4FF0020C046BD
:10482000C046FDF78BFD00F002F80120704780B50F
:1048300000F002F801BDFEE70746384600F002F836
:10484000FBE7FEE780B5C046C046024A11001820CB
:10485000ABBEFBE726000200014880470148004745
:104860002547000869480008C046C046C046C04603
:10487000FFF7CEFF0000000001020304FEE7FEE7A1
:10488000FEE7FEE7FEE7FEE7FEE7FEE7FEE7FEE700
:0C489000FEE7FEE7FEE7000000127A00E1
:04000005080048693E
:00000001FF
